{"abi":[{"type":"constructor","inputs":[],"stateMutability":"nonpayable"},{"type":"function","name":"NoteValue","inputs":[],"outputs":[{"name":"","type":"uint256","internalType":"uint256"}],"stateMutability":"view"},{"type":"function","name":"PRV_KEY_FOR_CHEAP_VERIFY","inputs":[],"outputs":[{"name":"","type":"string","internalType":"string"}],"stateMutability":"view"},{"type":"function","name":"RSA_D_KEY","inputs":[],"outputs":[{"name":"","type":"string","internalType":"string"}],"stateMutability":"view"},{"type":"function","name":"addressForCheapVerify","inputs":[],"outputs":[{"name":"","type":"address","internalType":"address"}],"stateMutability":"view"},{"type":"function","name":"bytesToHex","inputs":[{"name":"buffer","type":"bytes","internalType":"bytes"}],"outputs":[{"name":"","type":"string","internalType":"string"}],"stateMutability":"pure"},{"type":"function","name":"deposit","inputs":[{"name":"msgHash","type":"bytes32","internalType":"bytes32"}],"outputs":[],"stateMutability":"payable"},{"type":"function","name":"depositMsgHashMap","inputs":[{"name":"","type":"bytes32","internalType":"bytes32"}],"outputs":[{"name":"","type":"bool","internalType":"bool"}],"stateMutability":"view"},{"type":"function","name":"modexp","inputs":[{"name":"_b","type":"bytes","internalType":"bytes"},{"name":"_e","type":"bytes","internalType":"bytes"},{"name":"_m","type":"bytes","internalType":"bytes"}],"outputs":[{"name":"","type":"bytes","internalType":"bytes"}],"stateMutability":"nonpayable"},{"type":"function","name":"offchainInit","inputs":[],"outputs":[{"name":"","type":"bytes","internalType":"bytes"}],"stateMutability":"nonpayable"},{"type":"function","name":"offchainRedeem","inputs":[{"name":"encryptedTriplet","type":"bytes","internalType":"bytes"},{"name":"minTipBP","type":"uint256","internalType":"uint256"}],"outputs":[{"name":"","type":"bytes","internalType":"bytes"}],"stateMutability":"nonpayable"},{"type":"function","name":"onchainInit","inputs":[{"name":"_recordDataId","type":"bytes16","internalType":"Suave.DataId"},{"name":"e","type":"uint256","internalType":"uint256"},{"name":"N","type":"bytes","internalType":"bytes"},{"name":"_addressForCheapVerify","type":"address","internalType":"address"}],"outputs":[],"stateMutability":"nonpayable"},{"type":"function","name":"onchainRedeem","inputs":[{"name":"originMsgHash","type":"bytes32","internalType":"bytes32"},{"name":"redeemTo","type":"address","internalType":"address"},{"name":"tipTo","type":"address","internalType":"address"},{"name":"tipBP","type":"uint256","internalType":"uint256"},{"name":"sig","type":"bytes","internalType":"bytes"}],"outputs":[],"stateMutability":"nonpayable"},{"type":"function","name":"owner","inputs":[],"outputs":[{"name":"","type":"address","internalType":"address"}],"stateMutability":"view"},{"type":"function","name":"pubKey","inputs":[],"outputs":[{"name":"e","type":"uint256","internalType":"uint256"},{"name":"N","type":"bytes","internalType":"bytes"}],"stateMutability":"view"},{"type":"function","name":"recordDataId","inputs":[],"outputs":[{"name":"","type":"bytes16","internalType":"Suave.DataId"}],"stateMutability":"view"},{"type":"function","name":"redeemedMsgHashMap","inputs":[{"name":"","type":"bytes32","internalType":"bytes32"}],"outputs":[{"name":"","type":"bool","internalType":"bool"}],"stateMutability":"view"},{"type":"function","name":"takeBytes32FromBytes","inputs":[{"name":"payload","type":"bytes","internalType":"bytes"},{"name":"fromIdx","type":"uint256","internalType":"uint256"}],"outputs":[{"name":"result","type":"bytes32","internalType":"bytes32"}],"stateMutability":"pure"},{"type":"event","name":"Deposit","inputs":[{"name":"adx","type":"address","indexed":false,"internalType":"address"},{"name":"amount","type":"uint256","indexed":false,"internalType":"uint256"},{"name":"msgHash","type":"bytes32","indexed":false,"internalType":"bytes32"}],"anonymous":false},{"type":"error","name":"PeekerReverted","inputs":[{"name":"","type":"address","internalType":"address"},{"name":"","type":"bytes","internalType":"bytes"}]}],"bytecode":{"object":"0x6080604052348015600f57600080fd5b50600680546001600160a01b03191633179055612eba806100316000396000f3fe6080604052600436106100fe5760003560e01c80638b4c9e8311610095578063b214faa511610064578063b214faa514610305578063bed01de614610318578063ecd3d6be14610358578063f492f25014610378578063ff142fce146103a857600080fd5b80638b4c9e83146102745780638da5cb5b14610294578063ac2a5dfd146102b4578063aee62719146102d757600080fd5b806345d41176116100d157806345d41176146101c5578063551c7dd6146101fa578063710653b01461021c5780637d8368641461023c57600080fd5b806309c4e4071461010357806324472f9d1461012e578063384d35df14610161578063451d89fa146101a5575b600080fd5b34801561010f57600080fd5b506101186103c4565b604051610125919061231b565b60405180910390f35b34801561013a57600080fd5b506001546101489060801b81565b6040516001600160801b03199091168152602001610125565b34801561016d57600080fd5b50610118604051806040016040528060188152602001775052565f4b45595f464f525f43484541505f56455249465960401b81525081565b3480156101b157600080fd5b506101186101c0366004612419565b6105b4565b3480156101d157600080fd5b50610118604051806040016040528060098152602001685253415f445f4b455960b81b81525081565b34801561020657600080fd5b5061021a610215366004612465565b61076d565b005b34801561022857600080fd5b5061021a610237366004612538565b610b35565b34801561024857600080fd5b5060005461025c906001600160a01b031681565b6040516001600160a01b039091168152602001610125565b34801561028057600080fd5b5061011861028f3660046125ab565b610c24565b3480156102a057600080fd5b5060065461025c906001600160a01b031681565b3480156102c057600080fd5b506102c9610d5a565b60405161012592919061263c565b3480156102e357600080fd5b506102f76102f2366004612655565b610df1565b604051908152602001610125565b61021a610313366004612699565b610e51565b34801561032457600080fd5b50610348610333366004612699565b60056020526000908152604090205460ff1681565b6040519015158152602001610125565b34801561036457600080fd5b506101186103733660046126b2565b610f67565b34801561038457600080fd5b50610348610393366004612699565b60046020526000908152604090205460ff1681565b3480156103b457600080fd5b506102f767016345785d8a000081565b6006546060906001600160a01b0316331461041c5760405162461bcd60e51b81526020600482015260136024820152721bdb9b1e481bdddb995c8818d85b881a5b9a5d606a1b60448201526064015b60405180910390fd5b604080516001808252818301909252600091602080830190803683370190505090503081600081518110610452576104526126fd565b60200260200101906001600160a01b031690816001600160a01b031681525050600061049c60008384604051806040016040528060038152602001626b657960e81b815250611331565b905060006104a8611430565b90506000806000838060200190518101906104c39190612763565b9250925092506104f98560000151604051806040016040528060098152602001685253415f445f4b455960b81b8152508461146a565b6000610505600061151e565b90506105468660000151604051806040016040528060188152602001775052565f4b45595f464f525f43484541505f56455249465960401b8152508361146a565b6000610551826115e5565b8751604051919250630710653b60e41b9161057591908890879086906024016127c9565b60408051601f198184030181529190526020810180516001600160e01b03166001600160e01b0319909316929092179091529998505050505050505050565b60606000825160026105c69190612821565b6001600160401b038111156105dd576105dd61232e565b6040519080825280601f01601f191660200182016040528015610607576020820181803683370190505b5060408051808201909152601081526f181899199a1a9b1b9c1cb0b131b232b360811b602082015290915060005b845181101561074357818251868381518110610653576106536126fd565b0160200151610665919060f81c61284e565b81518110610675576106756126fd565b01602001516001600160f81b03191683610690836002612821565b815181106106a0576106a06126fd565b60200101906001600160f81b031916908160001a9053508182518683815181106106cc576106cc6126fd565b01602001516106de919060f81c612862565b815181106106ee576106ee6126fd565b01602001516001600160f81b03191683610709836002612821565b610714906001612876565b81518110610724576107246126fd565b60200101906001600160f81b031916908160001a905350600101610635565b50816040516020016107559190612889565b60405160208183030381529060405292505050919050565b60008581526004602052604090205460ff166107cb5760405162461bcd60e51b815260206004820152601e60248201527f6465706f736974206d6573736167652068617368206e6f7420666f756e6400006044820152606401610413565b60008581526005602052604090205460ff16156108225760405162461bcd60e51b81526020600482015260156024820152740e4cac8cacadacac840dacae6e6c2ceca40d0c2e6d605b1b6044820152606401610413565b6000858152600560205260409020805460ff191660011790556103e88211156108855760405162461bcd60e51b81526020600482015260156024820152740dad2c8c8d8ca9ac2dca8d2e040e8dede40d0d2ced605b1b6044820152606401610413565b600061271061089c8467016345785d8a0000612821565b6108a6919061284e565b60208381015160408086015160608088015183519586018d90526001600160a01b03808d1694870194909452928a169085015260808401889052939450909291601b600092831a01919060a00160408051601f19818403018152828252805160208083019190912060008086529185018085525260ff861692840192909252606083018790526080830186905292509060019060a0016020604051602081039080840390855afa15801561095e573d6000803e3d6000fd5b5050604051601f1901516000549092506001600160a01b0380841691161490506109be5760405162461bcd60e51b8152602060048201526011602482015270696e76616c6964207369676e617475726560781b6044820152606401610413565b60006127106109d58a67016345785d8a0000612821565b6109df919061284e565b90508815610a7f576000808b6001600160a01b03168360405160006040518083038185875af1925050503d8060008114610a35576040519150601f19603f3d011682016040523d82523d6000602084013e610a3a565b606091505b509150915081610a7c5760405162461bcd60e51b815260206004820152600d60248201526c06661696c2073656e642074697609c1b6044820152606401610413565b50505b6000806001600160a01b038d16610a9e8467016345785d8a00006128b3565b604051600081818185875af1925050503d8060008114610ada576040519150601f19603f3d011682016040523d82523d6000602084013e610adf565b606091505b509150915081610b255760405162461bcd60e51b81526020600482015260116024820152703330b4b6103932b232b2b69032ba3432b960791b6044820152606401610413565b5050505050505050505050505050565b6006546001600160a01b03163314610b855760405162461bcd60e51b81526020600482015260136024820152721bdb9b1e481bdddb995c8818d85b881a5b9a5d606a1b6044820152606401610413565b600180546001600160801b031916608087901c17905560408051808201825285815281516020601f86018190048102820181019093528481529091808301919086908690819084018382808284376000920191909152505050915250805160029081556020820151600390610bfa908261294c565b5050600080546001600160a01b0319166001600160a01b0393909316929092179091555050505050565b82518251825160408051602081018590526060949392916000910160408051601f1981840301815282825260208301869052910160408051601f1981840301815282825260208301869052910160408051601f1981840301815290829052610c969392918c908c908c90602001612a0a565b604051602081830303815290604052905060008060056001600160a01b031683604051610cc39190612a89565b6000604051808303816000865af19150503d8060008114610d00576040519150601f19603f3d011682016040523d82523d6000602084013e610d05565b606091505b509150915081610d4d5760405162461bcd60e51b81526020600482015260136024820152721b5bd9195e1c081b5d5cdd081cdd58d8d95959606a1b6044820152606401610413565b9998505050505050505050565b6002805460038054919291610d6e906128c6565b80601f0160208091040260200160405190810160405280929190818152602001828054610d9a906128c6565b8015610de75780601f10610dbc57610100808354040283529160200191610de7565b820191906000526020600020905b815481529060010190602001808311610dca57829003601f168201915b5050505050905082565b6000610dfe826020612876565b83511015610e425760405162461bcd60e51b81526020600482015260116024820152701c185e5b1bd859081d1bdbc81cda1bdc9d607a1b6044820152606401610413565b50818101602001515b92915050565b67016345785d8a00003414610ea85760405162461bcd60e51b815260206004820152601860248201527f6e6f7420737570706f72746564206e6f74652076616c756500000000000000006044820152606401610413565b60008181526004602052604090205460ff1615610f075760405162461bcd60e51b815260206004820152601960248201527f6465706f736974206d65737361676520686173682075736564000000000000006044820152606401610413565b600081815260046020908152604091829020805460ff19166001179055815133815234918101919091529081018290527f1a771fe656018364a9369da21954bb3081cb08b0196c27e43ca59c7cae8727379060600160405180910390a150565b6001546040805180820190915260098152685253415f445f4b455960b81b6020820152606091600091610f9d9160801b9061165c565b9050600061106e86868080601f0160208091040260200160405190810160405280939291908181526020018383808284376000920191909152505060038054879350909150610feb906128c6565b80601f0160208091040260200160405190810160405280929190818152602001828054611017906128c6565b80156110645780601f1061103957610100808354040283529160200191611064565b820191906000526020600020905b81548152906001019060200180831161104757829003601f168201915b5050505050610c24565b9050600061108482606084516102f291906128b3565b9050600061109a83604085516102f291906128b3565b60001c905060006110b384602086516102f291906128b3565b9050868110156110f35760405162461bcd60e51b815260206004820152600b60248201526a74697020746f6f206c6f7760a81b6044820152606401610413565b6103e88111156111345760405162461bcd60e51b815260206004820152600c60248201526b0e8d2e040e8dede40d0d2ced60a31b6044820152606401610413565b60008360405160200161114991815260200190565b60408051601f1981840301815291815281516020928301206000818152600490935291205490915060ff166111c05760405162461bcd60e51b815260206004820152601e60248201527f6465706f736974206d6573736167652068617368206e6f7420666f756e6400006044820152606401610413565b60008181526005602052604090205460ff16156112115760405162461bcd60e51b815260206004820152600f60248201526e1bdc9a59da5b881b5cd9c81d5cd959608a1b6044820152606401610413565b60408051602081018390526001600160a01b038516918101919091523360608201526080810183905260009060a00160408051601f1981840301815260015483830190925260188352775052565f4b45595f464f525f43484541505f56455249465960401b6020840152925060009161128d9160801b9061165c565b905060006112c583805190602001206040516020016112ae91815260200190565b604051602081830303815290604052600084611709565b6040519091503390632a8e3eeb60e11b906112ec9087908a9085908b908890602401612aa5565b60408051601f198184030181529190526020810180516001600160e01b03166001600160e01b0319909316929092179091529a50505050505050505050509392505050565b6040805160c0810182526000808252602082018190529181019190915260608082018190526080820181905260a082015260008063420300006001600160a01b03168787878760405160200161138a9493929190612b23565b60408051601f19818403018152908290526113a491612a89565b6000604051808303816000865af19150503d80600081146113e1576040519150601f19603f3d011682016040523d82523d6000602084013e6113e6565b606091505b509150915081611411576342030000816040516375fff46760e01b8152600401610413929190612b6b565b808060200190518101906114259190612c37565b979650505050505050565b606061146560405180604001604052806012815260200171636f6e666964656e7469616c496e7075747360701b8152506117e7565b905090565b60008063420200006001600160a01b031685858560405160200161149093929190612d2f565b60408051601f19818403018152908290526114aa91612a89565b6000604051808303816000865af19150503d80600081146114e7576040519150601f19603f3d011682016040523d82523d6000602084013e6114ec565b606091505b509150915081611517576342020000816040516375fff46760e01b8152600401610413929190612b6b565b5050505050565b606060008063532000036001600160a01b0316846040516020016115429190612d86565b60408051601f198184030181529082905261155c91612a89565b6000604051808303816000865af19150503d8060008114611599576040519150601f19603f3d011682016040523d82523d6000602084013e61159e565b606091505b5091509150816115c9576353200003816040516375fff46760e01b8152600401610413929190612b6b565b808060200190518101906115dd9190612d94565b949350505050565b6000806115f183611892565b905080516020146116445760405162461bcd60e51b815260206004820152601a60248201527f496e76616c69642070726976617465206b6579206c656e6774680000000000006044820152606401610413565b61165561165082612dc8565b6119b2565b9392505050565b606060008063420200016001600160a01b03168585604051602001611682929190612dec565b60408051601f198184030181529082905261169c91612a89565b6000604051808303816000865af19150503d80600081146116d9576040519150601f19603f3d011682016040523d82523d6000602084013e6116de565b606091505b5091509150816115dd576342020001816040516375fff46760e01b8152600401610413929190612b6b565b60606117136119f1565b61171c57600080fd5b60008063401000036001600160a01b031686868660405160200161174293929190612e0f565b60408051601f198184030181529082905261175c91612a89565b6000604051808303816000865af19150503d8060008114611799576040519150601f19603f3d011682016040523d82523d6000602084013e61179e565b606091505b5091509150816117c9576340100003816040516375fff46760e01b8152600401610413929190612b6b565b808060200190518101906117dd9190612d94565b9695505050505050565b606060008063533000036001600160a01b03168460405160200161180b919061231b565b60408051601f198184030181529082905261182591612a89565b6000604051808303816000865af19150503d8060008114611862576040519150601f19603f3d011682016040523d82523d6000602084013e611867565b606091505b5091509150816115c9576353300003816040516375fff46760e01b8152600401610413929190612b6b565b805160609082906118a590600290612862565b156118af57600080fd5b6000600282516118bf919061284e565b6001600160401b038111156118d6576118d661232e565b6040519080825280601f01601f191660200182016040528015611900576020820181803683370190505b50905060005b60028351611914919061284e565b8110156119aa576119528361192a836002612821565b611935906001612876565b81518110611945576119456126fd565b016020015160f81c611a72565b61196184611935846002612821565b61196c906010612e2f565b6119769190612e52565b60f81b82828151811061198b5761198b6126fd565b60200101906001600160f81b031916908160001a905350600101611906565b509392505050565b60008060006119c084611b7f565b6040805160208082019490945280820192909252805180830382018152606090920190528051910120949350505050565b604051600090819081906342010000908281818181865af19150503d8060008114611a38576040519150601f19603f3d011682016040523d82523d6000602084013e611a3d565b606091505b509150915081611a68576342010000816040516375fff46760e01b8152600401610413929190612b6b565b6020015192915050565b6000600360fc1b60f883901b6001600160f81b03191610801590611aa85750603960f81b60f883901b6001600160f81b03191611155b15611ab857610e4b603083612e6b565b606160f81b60f883901b6001600160f81b03191610801590611aec5750603360f91b60f883901b6001600160f81b03191611155b15611b08576061611afe83600a612e52565b610e4b9190612e6b565b604160f81b60f883901b6001600160f81b03191610801590611b3c5750602360f91b60f883901b6001600160f81b03191611155b15611b4e576041611afe83600a612e52565b60405162461bcd60e51b81526004016104139060208082526004908201526319985a5b60e21b604082015260600190565b600080611bd6837f79be667ef9dcbbac55a06295ce870b07029bfcdb2dce28d959f2815b16f817987f483ada7726a3c4655da4fbfc0e1108a8fd17b448a68554199c47d08ffb10d4b860006401000003d019611be0565b9094909350915050565b6000806000806000611bf78a8a8a60018b8b611c1a565b925092509250611c0983838389611c9c565b945094505050509550959350505050565b600080600088600003611c34575086915085905084611c90565b8860008060015b8315611c87576001841615611c6157611c598383838f8f8f8e611d0b565b919450925090505b611c6c60028561284e565b9350611c7b8c8c8c8c8c61203e565b919d509b509950611c3b565b91955093509150505b96509650969350505050565b6000806000611cab85856121e1565b905060008480611cbd57611cbd612838565b828309905060008580611cd257611cd2612838565b828a09905060008680611ce757611ce7612838565b8780611cf557611cf5612838565b8486098a09919a91995090975050505050505050565b6000808089158015611d1b575088155b15611d2d575085915084905083612031565b86158015611d39575085155b15611d4b575088915087905086612031565b611d536122ad565b8480611d6157611d61612838565b898a0981528480611d7457611d74612838565b81518a0960208201528480611d8b57611d8b612838565b86870960408201528480611da157611da1612838565b6040820151870960608201526040805160808101909152808680611dc757611dc7612838565b60408401518e0981526020018680611de157611de1612838565b60608401518d0981526020018680611dfb57611dfb612838565b83518b0981526020018680611e1257611e12612838565b60208401518a09905260408101518151919250141580611e3a57506060810151602082015114155b611e865760405162461bcd60e51b815260206004820152601e60248201527f557365206a6163446f75626c652066756e6374696f6e20696e737465616400006044820152606401610413565b611e8e6122ad565b8580611e9c57611e9c612838565b8251611ea890886128b3565b60408401510881528580611ebe57611ebe612838565b6020830151611ecd90886128b3565b60608401510860208201528580611ee657611ee6612838565b8151800960408201528580611efd57611efd612838565b8151604083015109606082015260008680611f1a57611f1a612838565b6060830151611f2990896128b3565b8880611f3757611f37612838565b602085015180090890508680611f4f57611f4f612838565b8780611f5d57611f5d612838565b8880611f6b57611f6b612838565b6040850151865109600209611f8090896128b3565b8208905060008780611f9457611f94612838565b8880611fa257611fa2612838565b611fac848b6128b3565b8a80611fba57611fba612838565b60408701518851090860208501510990508780611fd957611fd9612838565b8880611fe757611fe7612838565b6060850151602087015109611ffc908a6128b3565b820890506000888061201057612010612838565b898061201e5761201e612838565b8b8f098551099297509095509093505050505b9750975097945050505050565b6000806000856000036120585750869150859050846121d6565b6000848061206857612068612838565b898a0990506000858061207d5761207d612838565b898a0990506000868061209257612092612838565b898a099050600087806120a7576120a7612838565b88806120b5576120b5612838565b848e096004099050600088806120cd576120cd612838565b89806120db576120db612838565b8a806120e9576120e9612838565b8586098c098a806120fc576120fc612838565b87600309089050888061211157612111612838565b898061211f5761211f612838565b83840861212c908b6128b3565b8a8061213a5761213a612838565b838409089450888061214e5761214e612838565b898061215c5761215c612838565b8a8061216a5761216a612838565b86870960080961217a908b6128b3565b8a8061218857612188612838565b8b8061219657612196612838565b6121a0898e6128b3565b8608840908935088806121b5576121b5612838565b89806121c3576121c3612838565b8c8e096002099497509295509293505050505b955095509592505050565b600082158015906121f25750818314155b80156121fd57508115155b61223a5760405162461bcd60e51b815260206004820152600e60248201526d24b73b30b634b210373ab6b132b960911b6044820152606401610413565b6000600183825b86156122a257612251878361284e565b905082868061226257612262612838565b878061227057612270612838565b85840961227d90896128b3565b860890945092508661228f8183612821565b61229990846128b3565b97509150612241565b509195945050505050565b60405180608001604052806004906020820280368337509192915050565b60005b838110156122e65781810151838201526020016122ce565b50506000910152565b600081518084526123078160208601602086016122cb565b601f01601f19169290920160200192915050565b60208152600061165560208301846122ef565b634e487b7160e01b600052604160045260246000fd5b60405160c081016001600160401b03811182821017156123665761236661232e565b60405290565b604051601f8201601f191681016001600160401b03811182821017156123945761239461232e565b604052919050565b60006001600160401b038211156123b5576123b561232e565b50601f01601f191660200190565b600082601f8301126123d457600080fd5b81356123e76123e28261239c565b61236c565b8181528460208386010111156123fc57600080fd5b816020850160208301376000918101602001919091529392505050565b60006020828403121561242b57600080fd5b81356001600160401b0381111561244157600080fd5b6115dd848285016123c3565b6001600160a01b038116811461246257600080fd5b50565b600080600080600060a0868803121561247d57600080fd5b85359450602086013561248f8161244d565b9350604086013561249f8161244d565b92506060860135915060808601356001600160401b038111156124c157600080fd5b6124cd888289016123c3565b9150509295509295909350565b6001600160801b03198116811461246257600080fd5b60008083601f84011261250257600080fd5b5081356001600160401b0381111561251957600080fd5b60208301915083602082850101111561253157600080fd5b9250929050565b60008060008060006080868803121561255057600080fd5b853561255b816124da565b94506020860135935060408601356001600160401b0381111561257d57600080fd5b612589888289016124f0565b909450925050606086013561259d8161244d565b809150509295509295909350565b6000806000606084860312156125c057600080fd5b83356001600160401b038111156125d657600080fd5b6125e2868287016123c3565b93505060208401356001600160401b038111156125fe57600080fd5b61260a868287016123c3565b92505060408401356001600160401b0381111561262657600080fd5b612632868287016123c3565b9150509250925092565b8281526040602082015260006115dd60408301846122ef565b6000806040838503121561266857600080fd5b82356001600160401b0381111561267e57600080fd5b61268a858286016123c3565b95602094909401359450505050565b6000602082840312156126ab57600080fd5b5035919050565b6000806000604084860312156126c757600080fd5b83356001600160401b038111156126dd57600080fd5b6126e9868287016124f0565b909790965060209590950135949350505050565b634e487b7160e01b600052603260045260246000fd5b600082601f83011261272457600080fd5b81516020830160006127386123e28461239c565b905082815285838301111561274c57600080fd5b61275a8360208301846122cb565b95945050505050565b60008060006060848603121561277857600080fd5b8351925060208401516001600160401b0381111561279557600080fd5b6127a186828701612713565b92505060408401516001600160401b038111156127bd57600080fd5b61263286828701612713565b6001600160801b0319851681528360208201526080604082015260006127f260808301856122ef565b905060018060a01b038316606083015295945050505050565b634e487b7160e01b600052601160045260246000fd5b8082028115828204841417610e4b57610e4b61280b565b634e487b7160e01b600052601260045260246000fd5b60008261285d5761285d612838565b500490565b60008261287157612871612838565b500690565b80820180821115610e4b57610e4b61280b565b61060f60f31b8152600082516128a68160028501602087016122cb565b9190910160020192915050565b81810381811115610e4b57610e4b61280b565b600181811c908216806128da57607f821691505b6020821081036128fa57634e487b7160e01b600052602260045260246000fd5b50919050565b601f82111561294757806000526020600020601f840160051c810160208510156129275750805b601f840160051c820191505b818110156115175760008155600101612933565b505050565b81516001600160401b038111156129655761296561232e565b6129798161297384546128c6565b84612900565b6020601f8211600181146129ad57600083156129955750848201515b600019600385901b1c1916600184901b178455611517565b600084815260208120601f198516915b828110156129dd57878501518255602094850194600190920191016129bd565b50848210156129fb5786840151600019600387901b60f8161c191681555b50505050600190811b01905550565b60008751612a1c818460208c016122cb565b875190830190612a30818360208c016122cb565b8751910190612a43818360208b016122cb565b8651910190612a56818360208a016122cb565b8551910190612a698183602089016122cb565b8451910190612a7c8183602088016122cb565b0198975050505050505050565b60008251612a9b8184602087016122cb565b9190910192915050565b8581526001600160a01b038581166020830152841660408201526060810183905260a060808201819052600090611425908301846122ef565b600081518084526020840193506020830160005b82811015612b195781516001600160a01b0316865260209586019590910190600101612af2565b5093949350505050565b6001600160401b0385168152608060208201526000612b456080830186612ade565b8281036040840152612b578186612ade565b9050828103606084015261142581856122ef565b6001600160a01b03831681526040602082018190526000906115dd908301846122ef565b8051612b9a816124da565b919050565b80516001600160401b0381168114612b9a57600080fd5b600082601f830112612bc757600080fd5b81516001600160401b03811115612be057612be061232e565b8060051b612bf06020820161236c565b91825260208185018101929081019086841115612c0c57600080fd5b6020860192505b838310156117dd578251612c268161244d565b825260209283019290910190612c13565b600060208284031215612c4957600080fd5b81516001600160401b03811115612c5f57600080fd5b820160c08185031215612c7157600080fd5b612c79612344565b612c8282612b8f565b8152612c9060208301612b8f565b6020820152612ca160408301612b9f565b604082015260608201516001600160401b03811115612cbf57600080fd5b612ccb86828501612bb6565b60608301525060808201516001600160401b03811115612cea57600080fd5b612cf686828501612bb6565b60808301525060a08201516001600160401b03811115612d1557600080fd5b612d2186828501612713565b60a083015250949350505050565b6001600160801b031984168152606060208201526000612d5260608301856122ef565b82810360408401526117dd81856122ef565b60028110612d8257634e487b7160e01b600052602160045260246000fd5b9052565b60208101610e4b8284612d64565b600060208284031215612da657600080fd5b81516001600160401b03811115612dbc57600080fd5b6115dd84828501612713565b805160208083015191908110156128fa5760001960209190910360031b1b16919050565b6001600160801b0319831681526040602082015260006115dd60408301846122ef565b606081526000612e2260608301866122ef565b612d526020840186612d64565b60ff8181168382160290811690818114612e4b57612e4b61280b565b5092915050565b60ff8181168382160190811115610e4b57610e4b61280b565b60ff8281168282160390811115610e4b57610e4b61280b56fea26469706673582212207740bb9f290f7100badf8e1d1e13f88cf21386fc61b8af034ff22183e515a3e564736f6c634300081a0033","linkReferences":{}},"methodIdentifiers":{"NoteValue()":"ff142fce","PRV_KEY_FOR_CHEAP_VERIFY()":"384d35df","RSA_D_KEY()":"45d41176","addressForCheapVerify()":"7d836864","bytesToHex(bytes)":"451d89fa","deposit(bytes32)":"b214faa5","depositMsgHashMap(bytes32)":"f492f250","modexp(bytes,bytes,bytes)":"8b4c9e83","offchainInit()":"09c4e407","offchainRedeem(bytes,uint256)":"ecd3d6be","onchainInit(bytes16,uint256,bytes,address)":"710653b0","onchainRedeem(bytes32,address,address,uint256,bytes)":"551c7dd6","owner()":"8da5cb5b","pubKey()":"ac2a5dfd","recordDataId()":"24472f9d","redeemedMsgHashMap(bytes32)":"bed01de6","takeBytes32FromBytes(bytes,uint256)":"aee62719"},"id":12}